:020000040800F2
:10000000C006002029020008851300087D1300089F
:1000100081130008D50300089915000800000000AE
:100020000000000000000000000000008D13000828
:10003000D90300080000000089130008911300088C
:10004000430200084302000843020008430200087C
:10005000430200084302000843020008430200086C
:10006000430200084302000843020008430200085C
:10007000430200084302000843020008430200084C
:10008000430200084302000843020008430200083C
:10009000430200084302000843020008430200082C
:1000A000430200084302000843020008430200081C
:1000B000430200084302000843020008430200080C
:1000C00043020008430200084302000843020008FC
:1000D00043020008430200084302000843020008EC
:1000E00043020008430200084302000843020008DC
:1000F00043020008430200084302000843020008CC
:1001000043020008430200084302000843020008BB
:1001100043020008430200084302000843020008AB
:10012000430200084302000843020008430200089B
:10013000430200084302000843020008430200088B
:10014000430200084302000843020008430200087B
:10015000430200084302000843020008430200086B
:10016000430200084302000843020008430200085B
:100170004302000843020008430200080000000098
:10018000430200084302000800F002F800F03CF8C7
:100190000AA090E8000C82448344AAF10107DA45E2
:1001A00001D100F031F8AFF2090EBAE80F0013F0F8
:1001B000010F18BFFB1A43F0010318478815000010
:1001C000A8150000103A24BF78C878C1FAD85207A1
:1001D00024BF30C830C144BF04680C6070470000C1
:1001E0000023002400250026103A28BF78C1FBD840
:1001F000520728BF30C148BF0B6070471FB501F0E0
:100200008BFA1FBD10B510BD00F0A9F81146FFF71D
:10021000F5FF01F0C3F900F0C7F803B4FFF7F2FFF0
:1002200003BC00F0CFF800000948804709480047A8
:10023000FEE7FEE7FEE7FEE7FEE7FEE7FEE7FEE796
:10024000FEE7FEE704480549054A064B70470000F3
:100250004914000889010008C0000020C0060020E1
:10026000C0020020C002002053EA020C00F06980A6
:100270002DE9F04B4FF00006002B1FBFB3FA83F5BA
:1002800003FA05F424FA05F65E4012BF1643B2FAEB
:1002900082F502FA05F4C5F120051EBF22FA05FC1D
:1002A00044EA0C04203556EA044C4FEA144418BFC3
:1002B000641C4FF000084FF00009904271EB030CF2
:1002C00039D3002919BFB1FA81F701FA07F6B0FA5C
:1002D00080F700FA07F6C7F120071EBF20FA07FCD7
:1002E00046EA0C062037B6FBF4FCA7EB0507103FE7
:1002F00007F01F0BCBF120062CFA06F60CFA0BFBCD
:1003000044BFB3460026202FA4BF5E464FF0000B2B
:100310005BEA060C08BF4FF0010B19EB0B0948EB29
:100320000608ABFB027C06FB02CC0BFB03CCC01B1C
:1003300071EB0C01C1E70B46024641464846BDE859
:10034000F08B13B5084318BF4FF0FF300146AFF3F1
:100350000080BDE81C407047704770477047754685
:1003600000F02CF8AE4605006946534620F0070021
:10037000854618B020B5FFF765FFBDE820404FF077
:1003800000064FF000074FF000084FF0000BAC469E
:10039000ACE8C009ACE8C009ACE8C009ACE8C009E9
:1003A00021F007018D46704710B50446AFF3008079
:1003B0002046BDE81040FFF730BF000000487047FE
:1003C0001000002001491820ABBEFEE72600020005
:1003D00070470000FEE7000070470000B0B504461B
:1003E00000F0FCF8054640F20000C2F20000007880
:1003F000611C18BF044400BF00F0F0F8401BA0428D
:10040000FAD3B0BD2DE9F04F82B000F13E4241F683
:10041000004502F1FF77C4F2020508224FEAB72631
:10042000A84208BF0722072E38BF4FEAB7224FF075
:10043000010A002400274FF00008009208E000BFE6
:10044000023708F10108202F04F1040400F0B48001
:100450000E680AFA08F916EA090FF1D0D1F804A0DB
:100460000AF0030BABF10106012E17D803228668B0
:1004700002FA07FECA6826EA0E06BA4032438260D4
:100480004268CAF3001522EA090205FA08F54FEAA4
:10049000480C6FEA0E062A4342600BE00322BA4082
:1004A000D643BBF1030FBC4604D1BC464FF0030B4F
:1004B00022E000BFC2688D68324005FA0CF52A437D
:1004C000BBF1020FC26017D16FF0030202EA5802BB
:1004D000024404F01C030F25D2F820E005FA03FAC9
:1004E0000D692EEA0A0E05FA03F343EA0E031362BE
:1004F000D1F804A00AF0030B02680BFA0CF33240A7
:100500001A431AF4403F4FF0010A026098D00022CB
:1005100043F644030192C4F202031A6843F6004E04
:1005200042F480421A601A68C4F2010E02F480425A
:100530000192019A28F003024FF6084C7244CFF65C
:10054000FF7C52F80C3004F00C060F25B540AB438D
:10055000009D05FA06F6334342F80C30DEF8082019
:100560004B6842EA090643F60C4CDD0258BF22EA0A
:100570000906CEF80860C4F2010CDCF800209D02E8
:1005800042EA090658BF22EA0906CCF80060DEF804
:1005900004209D0342EA090658BF22EA0906CEF864
:1005A0000460DEF80020DB0342EA090658BF22EAB5
:1005B0000906CEF8006043E702B0BDE8F08F000006
:1005C000426902EA0103914341EA034181617047B4
:1005D000002A08BF090481617047000040F2BC0096
:1005E000C2F200000068704740F2000040F2BC0117
:1005F000C2F20000C2F2000100780A6810440860EC
:100600007047000080B543F60040C4F20200016864
:1006100041F400710160016841F48061016001688A
:1006200041F480710160032000F074F80F2000F0A5
:1006300005F800F027F8002080BD000070B540F2FA
:100640000006C2F2000640F208013278C2F2000150
:100650004FF47A730968B3FBF2F20446B1FBF2F18E
:10066000084600F009FB0F2C4FF0010508D838B9F7
:100670004FF0FF3021460022002500F01FF8746083
:10068000284670BD82B0002043F640010190C4F2BC
:1006900002014A6842F480424A604A6802F4804299
:1006A0000192019A0090086840F080500860086844
:1006B00000F080500090009802B0704710B54EF6E0
:1006C0000C5CCEF2000CDCF80030C3F3022E8EF08E
:1006D0000704042C28BF0424BEF103034FF0FF3E9F
:1006E0000EFA04F438BF0023A14399400EFA03F335
:1006F0009A43114300F00F02043A624409010C329C
:1007000000F16043B0F1FF3FC8BF03F564421170D0
:1007100010BD00004EF60C51CEF200010A684FF6F3
:10072000FF031A4060F30A2242F0806040F0FD703F
:10073000086070472DE9F041002800F08B8043F6F7
:100740000808C4F202080446D8F8F8030D4600F081
:100750000700884207D288F8F853D8F8F80300F069
:100760000700A84276D12068810717D5410705D533
:10077000D8F8001041F4E051C8F80010010705D581
:10078000D8F8001041F46041C8F80010D8F8001003
:10079000A26821F0F0011143C8F80010C0073FD152
:1007A000D8F8F80300F00700A84207D988F8F853F2
:1007B000D8F8F80300F00700A8424BD120684107A1
:1007C00007D5D8F80010E26821F4E0511143C8F8C9
:1007D0000010000708D5D8F80000216920F4604017
:1007E00040EAC100C8F8000000F054F8D8F8001042
:1007F00041F23272C1F30311C0F60002515C40F2C3
:10080000080220FA01F140F20400C2F20000006880
:10081000C2F200021160FFF711FF0020BDE8F08175
:100820006068811E022907D258F8081C89015CBF44
:100830000120BDE8F08111E0012807D158F8081C1B
:1008400089035CBF0120BDE8F08107E058F8081C6F
:10085000890703D40120BDE8F08100BFD8F800105B
:1008600021F003010843C8F80000FFF7B7FE064671
:1008700041F28837D8F80000616800F00C00B0EB56
:10088000810F8DD0FFF7AAFE801BB842F2D903205A
:10089000BDE8F08110B543F60404C4F202046068B8
:1008A00000F00C0008280BD0042819BF42F20040C9
:1008B000C0F2F40047F64000C0F27D1010BD00BF4A
:1008C000206821682368490247F64001C0F27D1183
:1008D00000F03F02C3F388105CBF42F20041C0F257
:1008E000F401A1FB00010023FFF7BEFC21680222F6
:1008F000C1F3014102EB4101B0FBF1F010BD00007A
:100900002DE9F04182B000286AD00446007843F611
:100910000006C007C4F202060BD0B06800F00C005D
:10092000042840F0A1803068800302D56068002868
:1009300056D0207880071AD5B06810F00C0F09D077
:10094000B06800F00C00082840F0A88070684002F1
:1009500000F1A4803068800702D5E06801283FD10B
:100960003068216920F0F80040EAC100306020784A
:10097000000739D4207840074ED4A5695DB3B0682C
:1009800000F00C00082840F0BD80012D28D07068D0
:10099000E16900F480028A4222D1216A00F03F021C
:1009A0008A421DD147F6C071626A0140B1EB821FD5
:1009B00016D1A26A0023CFF6FF7303EBC23200F414
:1009C00040316FF30F0291420AD1E16A00F070608A
:1009D000B0EB016F04D1002002B0BDE8F08100BF90
:1009E000012002B0BDE8F0816069002840F20000FB
:1009F000C4F2472076D00121C0F8801EFFF7EEFD3B
:100A0000054600BF706F8007B4D4FFF7E7FD401BB9
:100A10000228F7D9DDE000BF306C10F080580AD111
:100A200000200190306C40F080503064306C00F059
:100A300080500190019847F20007C4F2000738681F
:100A4000C00541D4386840F480703860FFF7C6FDB7
:100A5000054600BF3868C00536D4FFF7BFFD401B10
:100A60000228F7D9B5E000BFB06800F00C000828F4
:100A700003D1706840023FF556AF6068B0F5803F23
:100A800007D0B0F5A02F40F08D80306840F4802072
:100A90003060306840F4803030608DE0E0680028DD
:100AA00052D00020C4F2472001210160FFF796FDDB
:100AB000054600BF306880073FF552AFFFF78EFD57
:100AC000401B0228F6D984E0A068012805D005283B
:100AD0004ED1306F40F004003067306F40F00100BD
:100AE00030674FE00021C0F8801EFFF777FD054614
:100AF000706F80077FF53EAFFFF770FD401B022847
:100B0000F6D966E00027C4F2472700203866FFF7D1
:100B100065FD022D05460BD1306880015ED5FFF7DB
:100B20005DFD401B02284FF00300F5D954E700BFDC
:100B3000306880017FF54FAFFFF750FD401B022862
:100B40004FF00300F4D947E70020C4F2472000210A
:100B50000160FFF743FD0546306880077FF507AF6A
:100B6000FFF73CFD401B02284FF00300F4D933E7A8
:100B7000316F002821F001013167316F21F004014C
:100B800031674DD0FFF72AFD054641F2883700BF97
:100B9000306F800756D4FFF721FD401BB842F7D9CC
:100BA00017E000BF3168002821F4803131603168DE
:100BB00021F4802131604FD0FFF710FD054600BFC2
:100BC000306880033FF5B5AEFFF708FD401B642891
:100BD000F6D9032002B0BDE8F08100BF04F11C0586
:100BE0002FCD08430021CFF6FF7140EA821001EBC0
:100BF000C3316FF30F0140EA0560084370600120C4
:100C00003866FFF7EBFC0446306880013FF5E3AE41
:100C1000FFF7E4FC001B02284FF00300F4D9DBE6E9
:100C2000FFF7DCFC054641F2883700BF306F8007D4
:100C300008D5FFF7D3FC401BB8424FF00300F5D9AD
:100C4000CAE600BFB8F1000F7FF497AE306C20F019
:100C50008050306491E600BFFFF7C0FC054600BF3E
:100C6000306880037FF565AEFFF7B8FC401B642851
:100C70004FF00300F4D9AFE6411E0020B0EB116F36
:100C80001CBF012070474EF21002CEF200025160EC
:100C90004EF62351CEF20001F0230B700721906035
:100CA0001160704710B590F83C20012A4FF0020205
:100CB00051D080F83D200268D2F804E0D2F808C094
:100CC0000C682EF07003234341F2FF74C4F2000459
:100CD000A24253600EDC40F2FF73C4F200039A425A
:100CE00016DCB2F1804F2BD040F20043C4F2000377
:100CF00024E000BF40F2FF33C4F201039A4213DC48
:100D000041F60003C4F200039A4219D0002313E015
:100D100040F60003C4F200039A4211D040F60043AB
:100D2000C4F200030AE000BF44F20003C4F201036E
:100D30009A4205D040F20043C4F201039A4204D122
:100D400049682CF08003194391600121002280F84A
:100D50003D1080F83C20104610BD0000002804BF64
:100D60000120704710B5044690F83D0028B90020D6
:100D700084F83C00204600F01FF8022084F83D0073
:100D80002068211D00F06AFB012084F8460084F8E9
:100D90003E0084F83F0084F8400084F8410084F865
:100DA000420084F8430084F8440084F8450084F845
:100DB0003D00002010BD000081B0006840F6000139
:100DC000C4F20001884201D001B0704700200090B9
:100DD00043F64000C4F20200016841F004010160E2
:100DE000006800F004000090009801B07047000017
:100DF00080B590F83C20012A4FF0020200F0C2803A
:100E000080F83D20D0F800C04FF67772DCF808304B
:100E100023EA0202CCF808200B684F2B28DC1F2B9A
:100E200044DD202B45D0302B43D0402B40F0AC800C
:100E3000D1F804E0C968DCF82030DCF8202022F08A
:100E40000102CCF82020DCF8182022F0F00242EA5F
:100E5000011123F00A0242EA0E02CCF81810CCF875
:100E60002020DCF8081041F0470121F0300180E03B
:100E70006F2B27DDB3F5005F48D0B3F5805F7AD0E4
:100E8000702B40F08180D1E901E3C968DCF80820CB
:100E900043EA0E0322F47F4243EA01211143CCF8D6
:100EA0000810DCF8081041F0770162E00BB1102B5C
:100EB0006AD1DCF8081021F07001194341F00701F4
:100EC00057E000BF502B35D0602B5DD1D1F804E046
:100ED000C968DCF8203023F01003CCF82030DCF8AF
:100EE0001830DCF8202023F4704322F0A00243EAFB
:100EF000013142EA0E12CCF81810CCF82020DCF8B0
:100F0000081041F0670121F0100132E0D1E901E35E
:100F1000C968DCF8082043EA0E0322F47F4243EA62
:100F200001211143CCF80810DCF8081041F480418D
:100F30001FE000BFD1F804E0C968DCF82030DCF81D
:100F4000202022F00102CCF82020DCF8182022F02A
:100F5000F00242EA011123F00A0242EA0E02CCF842
:100F60001810CCF82020DCF8081041F0570121F0CF
:100F70002001CCF808100022012180F83D1000214A
:100F800080F83C10104680BD0122F5E780B586B0A0
:100F9000016840F60000C4F20000814202D006B0B1
:100FA00080BD00BF002143F630020191C4F202026D
:100FB000136800F5013043F008031360126802F073
:100FC00008020192019A4FF4805201920222CDE967
:100FD00002210321CDE9041201A9FFF713FA06B09B
:100FE00080BD00002DE9F04190F83C30012B04BF9A
:100FF0000220BDE8F0814FEAB202032A00F2FC8031
:10100000DFE802F0023E7EBE036840F200471A6A43
:1010100043F4806522F001021A621C6A1A46D3F872
:1010200004E052F818CF8E6824F00204C4F20107DD
:10103000BD4244EA060405D1CE6824F00C0426F033
:10104000040634430E68BD4207D1D1E905572EF49A
:10105000407E45EA0E0545EA070E2CF0730737433C
:10106000C3F804E09F614F6809695F631C629F6970
:1010700047F008079F619F6927F004079F61B1E06F
:10108000036840F200481A6A43F4806522F01002B7
:101090001A621C6A1A46D3F804E052F818CF8F6817
:1010A00024F02004C4F20108454544EA071407D19E
:1010B000CF686FF0400624F0C00406EA07163443F8
:1010C0000F68454507D1D1E905562EF4406E4EEA2A
:1010D000850545EA860E2CF4E64646EA0727C3F85E
:1010E00004E09F614F6809699F631C629F6947F430
:1010F00000679F619F6927F480679F6171E000BF6F
:10110000036840F200481A6A43F4806522F4807252
:101110001A621C6A1A46D3F804E052F81CCF8F6892
:1011200024F40074C4F20108454544EA072408D1B8
:10113000CF6840F2FF463F0224F4406427EA0606E7
:1011400034430F68454507D1D1E905562EF4405E7A
:101150004EEA051545EA061E2CF073063743C3F820
:1011600004E0DF614F680969DF631C62DF6947F0F3
:101170000807DF61DF6927F00407DF6132E000BFA5
:10118000036840F200451A6A43F4806722F48052F3
:101190001A621A46D3F820C05C6852F81CEFD1F8E6
:1011A00000808E68C4F20105AF4204D14D6924F479
:1011B000804444EA85142CF4005747EA06372EF49D
:1011C000E64646EA08265C60DE614E6809691E64F0
:1011D0001F62DF6947F40067DF61DF6927F480671A
:1011E000DF6109021368194311600021002280F8B1
:1011F0003C200846BDE8F0810121002280F83C2017
:101200000846BDE8F0810000002804BF01207047B7
:1012100010B5044690F83D0028B9002084F83C0041
:10122000204600F01FF8022084F83D002068211DB0
:1012300000F014F9012084F8460084F83E0084F898
:101240003F0084F8400084F8410084F8420084F8AC
:10125000430084F8440084F8450084F83D000020F1
:1012600010BD00007047000041B1082910D00429CA
:1012700014BF00F1410200F13F020BE090F83E2064
:10128000012A1CBF01207047022280F83E2013E093
:1012900000F140021278012A1CBF0120704702228F
:1012A000082907D0042914BF80F8412080F83F2086
:1012B00002E000BF80F84020006801F01F01012219
:1012C000036A02FA01F123EA01020262026A11438F
:1012D00041F2FF72C4F20002904201620CDC40F263
:1012E000FF71C4F20001884214DCB0F1804F37D0A6
:1012F00040F2004116E000BF40F2FF31C4F20101AC
:10130000884215DC41F60001C4F20001884227D072
:10131000002115E040F60001C4F2000188421FD010
:1013200040F60041C4F20001884219D01FE000BF1E
:1013300044F20001C4F20101884211D040F20041A0
:10134000C4F20101884212D1416C40F2004340F4E2
:101350008062C4F2010341F400419A42416406D123
:10136000816801F00701062904BF00207047016869
:1013700041F001010160002070470000FEE700001D
:10138000FEE70000FEE70000704700007047000025
:10139000FFF72AB9B0B592B0002443F64000CDE97A
:1013A0000A44CDE908440594CDE90344CDE901445C
:1013B0000094C4F202000168022541F080510160EE
:1013C000006800F080500090009847F20000009400
:1013D000C4F20000016841F480410160006800F43B
:1013E000804000900098012006904FF480300790D4
:1013F0004FF480000D9019200E904FF4A870CDE9A5
:101400000F050420119006A80C95FFF779FA28B172
:10141000EFF3108072B600BFFEE700BF0F20CDE9EA
:1014200001054FF4A05004904FF48050059001A89E
:1014300005210394FFF77EF920B1EFF3108072B617
:10144000FEE700BF12B0B0BD4EF68850CEF20000ED
:10145000016841F4700101607047000010B540F66A
:10146000FF3E0368C4F2000E40F2004C7045C4F227
:10147000010C27DCB0F1804F31D040F20042C4F2C1
:10148000000290422BD040F60002C4F200029042CB
:1014900025D041F6FF72C4F20002904229DC70456B
:1014A0003CDCB0F1804F5FD040F20042C4F2000259
:1014B000904259D040F60002C4F20002904253D04C
:1014C00056E000BF40F60042C4F20002904206D04F
:1014D000604504D00022C4F201029042D9D14A688A
:1014E00023F07003134341F6FF72C4F200029042EE
:1014F000D5DD43F6FF72C4F20102904222DC42F2D3
:101500000002C4F2000290422ED00022C4F2010276
:10151000904229D0604527D02AE000BF40F6004223
:10152000C4F2000290421FD041F60002C4F2000251
:10153000904219D041F60042C4F20002904213D00A
:1015400016E000BF44F20002C4F2010290420BD048
:1015500044F60002C4F20102904205D044F2004277
:10156000C4F20102904203D1CA6823F440731343CA
:1015700023F080024B69D1F800E08C681A430260C6
:10158000C46240F48062C0F828E0624504BF096983
:1015900001630121416110BDFEE700008EB041F200
:1015A0000004C4F20204FFF72DF8FFF7F3FE002554
:1015B00043F6300005950A95C4F202000168002246
:1015C00041F08001016001684FF4004601F08001A4
:1015D0000A910A990A95016841F0100101600168B9
:1015E00001F010010A910A990A95016841F0080179
:1015F0000160016801F008010A910A990A950168E1
:1016000041F00101016000684FF4004100F0010069
:101610000A900A982046FEF7DBFF0120CDE902057B
:1016200001A9204601960495FEF7ECFE40F27006F3
:10163000C2F20006A4F50231304640F8041F15211D
:101640004FF4C8720D95CDE90B55CDE90855CDE99C
:101650000655CDE90455C0E90115C0E903258561AA
:10166000FFF77CFB20B1EFF3108072B6FEE700BFFE
:101670004FF48050351D0A900AA92846FFF7B8FBA1
:1016800020B1EFF3108072B6FEE700BF2846FFF7E7
:10169000BBFD28B1EFF3108072B600BFFEE700BFBC
:1016A00008A92846FFF7FEFA20B1EFF3108072B6C2
:1016B000FEE700BF602001900020CDE90200059008
:1016C00001A928460022FFF78DFC28B1EFF3108016
:1016D00072B600BFFEE700BF2846FFF757FC28465A
:1016E0000021FFF7C1FD30884FF63405CFF6FD75B8
:1016F0000530308020464FF40041FEF761FF30880E
:1017000060514FF49670FEF769FE3088B0F5C87FDF
:10171000EED900203080EBE7F1EE100A4FF6FF71B2
:10172000C0F2C03120EA010040F04070E1EE100A42
:1017300070470000000000000000010203040607DB
:1017400008090000681700080000002010000000D1
:10175000C40100087817000810000020B00600003F
:10176000E00100080000000001000000100000007F
:081770000024F4000000000059
:040000050800018965
:00000001FF
